:100000000C94B0020C948B140C9464140C94120E87
:100010000C94120E0C94120E0C942A0A0C94D80212
:100020000C94D8020C94D8020C94D8020C94D802E8
:100030000C94D8020C94D8020C94D8020C94D802D8
:100040000C941A140C94D8020C94D8140C94B21476
:100050000C94D8020C94D8020C94D8020C94D802B8
:100060000C94D8020C94D80200407A10F35A00A0E5
:10007000724E18090010A5D4E80000E87648170071
:1000800000E40B54020000CA9A3B000000E1F505B1
:10009000000080969800000040420F000000A086FB
:1000A00001000000102700000000E803000000002D
:1000B0006400000000000A000000000001000000D1
:1000C00000002C76D888DC674F0823DFC1DFAE59EB
:1000D000E1B1B796E5E3E453C63AE651997696E87E
:1000E000E6C28426EB898C9B62ED407C6FFCEFBC02
:1000F0009C9F40F2BAA56FA5F490055A2AF75C932D
:100100006B6CF9676DC11BFCE0E40D47FEF520E662
:10011000B500D0ED902E0300943577050080841E45
:10012000080000204E0A000000C80C333333330FA0
:10013000986E12831141EF8D2114893BE65516CF3D
:10014000FEE6DB18D1844B381BF77C1D901DA4BB49
:10015000E424203284725E228100C9F124ECA1E5FE
:100160003D2754534D3A494E49540A002154534DAA
:100170003A494E49543A545350204641494C0A009A
:1001800054534D3A494E49543A545350204F4B0A18
:100190000054534D3A465041520A002154534D3AAF
:1001A000465041523A4E4F205245504C590A002178
:1001B00054534D3A465041523A4641494C0A005434
:1001C000534D3A465041523A4F4B0A0054534D3A20
:1001D00049443A5245510A0054534D3A49440A00A1
:1001E0002154534D3A49443A4641494C0A0054532C
:1001F0004D3A49443A4F4B0A0054534D3A55504CEE
:100200000A002154534D3A55504C3A4641494C0A44
:100210000054534D3A55504C3A444757432C4F3DA8
:1002200025642C4E3D25640A0054534D3A55504CDC
:100230003A4F4B0A0054534D3A52454144593A49BA
:10024000443D25642C5041523D25642C4449533D86
:1002500025640A002154534D3A52454144593A55B8
:10026000504C204641494C2C534E500A0054534D9B
:100270003A4641494C3A5044540A0054534D3A4688
:1002800041494C3A434E543D25640A0054534D3A7B
:100290004641494C3A52452D494E49540A004D4376
:1002A0004F3A50494D3A4E4F4445205245473D251F
:1002B000640A00215453463A4D53473A52454C2064
:1002C0004D53472C4E5245500A005453463A4D5315
:1002D000473A42430A005453463A4D53473A414342
:1002E0004B0A00215453463A4D53473A504F4E471C
:1002F00020524543562C494E4143544956450A0025
:100300005453463A4D53473A504F4E472052454377
:10031000562C48503D25640A005453463A4D5347E5
:100320003A50494E4745442C49443D25642C485099
:100330003D25640A00215453463A4D53473A4650EE
:10034000415220494E4143544956450A00545346B0
:100350003A4D53473A46504152204F4B2C49443D69
:1003600025642C443D25640A005453463A4D5347B6
:100370003A41434B205245510A00215453463A4DCD
:1003800053473A505645522C25643D25640A0021B6
:100390005453463A4D53473A4C454E2C2564213D23
:1003A00025640A005453463A4D53473A5245414456
:1003B0002C25642D25642D25642C733D25642C6328
:1003C0003D25642C743D25642C70743D25642C6C93
:1003D0003D25642C73673D25643A25730A00545308
:1003E000463A5349443A4F4B2C49443D25640A0050
:1003F000215453463A5349443A4641494C2C4944C6
:100400003D25640A0025735453463A4D53473A53E9
:10041000454E442C25642D25642D25642D25642C02
:10042000733D25642C633D25642C743D25642C703C
:10043000743D25642C6C3D25642C73673D25642C2C
:1004400066743D25642C73743D25733A25730A0048
:10045000215453463A5254453A4650415220414362
:10046000544956450A00215453463A534E443A548F
:100470004E520A004D434F3A5245473A5245510AAF
:10048000005453463A5755523A4D533D256C750A20
:10049000004D434F3A42474E3A494E4954204F4B44
:1004A0002C5453503D25640A004D434F3A42474E69
:1004B0003A5354500A004D434F3A42474E3A42464F
:1004C000520A004D434F3A42474E3A494E49542052
:1004D0004E4F44452C43503D524E4E4E412D2D2CF7
:1004E0005645523D322E312E310A000000000024C4
:1004F0000027002A00000000080002010000030499
:10050000070000000000000000214D434F3A534E09
:10051000443A4E4F4445204E4F54205245470A001E
:1005200000000000250028002B0000000000230030
:100530002600290004040404040404040202020244
:100540000202030303030303010204081020408096
:100550000102040810200102040810204116291588
:1005600011241FBECFEFD8E0DEBFCDBF11E0A0E069
:10057000B1E0E4E3FCE302C005900D92A037B107BF
:10058000D9F723E0A0E7B1E001C01D92A63BB20776
:10059000E1F712E0CFEAD2E004C02197FE010E9409
:1005A000F31DCE3AD107C9F70E9433150C940D1EE6
:1005B0000C9400000F931F930E949E130091C101A1
:1005C0001091C2012091C3013091C401601B710BD5
:1005D000820B930B1F910F9108959C018091BF0195
:1005E0009091C0018217930751F09091C9019F71BA
:1005F0009093C9013093C0012093BF0105C0809141
:10060000C901805E8093C901E091BF01F091C001F2
:100610000190F081E02D309709F009950E949E131A
:100620006093C1017093C2018093C3019093C40190
:100630000895CF92DF92EF92FF920F931F93CF9383
:10064000DF93CDB7DEB7C857D1090FB6F894DEBF38
:100650000FBECDBF0E949E139B01AC0119A28E015B
:100660000F5D1F4F8AE0C82ED12CE12CF12CCA015E
:10067000B901A70196010E94BD1D605DF80162935A
:100680008F01211531054105510589F7CF010E94E0
:100690008F1289E491E00E948F129E012B573F4FE9
:1006A000CD57DF4F48815981C358D04068E770E08B
:1006B000CE0101960E940618CE0101960E948F126B
:1006C00086E092E00E94A211C858DF4F0FB6F8945E
:1006D000DEBF0FBECDBFDF91CF911F910F91FF9075
:1006E000EF90DF90CF900895CF93C82F8FEF8C0FAE
:1006F0008E3F08F5C0930302C0931C0163E082E2C1
:100700000E94FF0E61E081E20E94FF0E0E94100F26
:100710006C2F80E090E00E94461D1F92CF938EEDDB
:1007200093E09F938F930E9419030F900F900F9067
:100730000F9081E018C01F92CF9380EF93E09F93BA
:100740008F930E9419030F900F900F900F9080E0ED
:1007500090E0892B21F08EE690E00E9400008FEF60
:100760008093030280E0CF9108952F923F924F92A1
:100770005F926F927F928F929F92AF92BF92CF9231
:10078000DF92EF92FF920F931F93CF93DF93CDB73A
:10079000DEB72C970FB6F894DEBF0FBECDBFE09149
:1007A000BF01F091C0010280F381E02D309709F084
:1007B00009958091C90184FB222720F9298784FFAC
:1007C00054C386E0D82E90E0E92E90E0F92E9E01E9
:1007D0002F5F3F4F3C832B8320EA822E26E8922E08
:1007E000AA24A394B12C34EB432E3BE2532E31E1E7
:1007F000632E712C21E041E060E070E087E10E940F
:10080000CD0E80FD32C3DA94DD2009F42EC3E1144D
:10081000F10421F081E090E00E94000021E041E03D
:1008200060E070E080E60E94CD0EC82E30E23817FE
:1008300020F482EE0E941D0FC12C21E04C2D68E8AF
:1008400073E081E60E94CD0E60E487E20E94FF0E15
:1008500080918B03282F2695269526952A3108F01E
:1008600029E182FD03C077E0720F01C070E2809140
:100870008C0387708D8310918D03009189032090E4
:10088000880330908A0388E893E02A877C870E9457
:10089000DF112A85422F50E09F938F9380918B0325
:1008A00082FB882780F91F928F931F922F9380914C
:1008B0008C038295869587701F928F931F921F934A
:1008C0001F922D812F9380918E031F928F931F92E1
:1008D0003F921F922F921F920F93A4EAB3E0BF930F
:1008E000AF934A875B870E9419030FB6F894DEBF67
:1008F0000FBECDBF7C854A855B85C71679F0E114B4
:10090000F10429F08CE690E00E9400007C851F92A3
:100910007F931F92CF928FE893E017C020918B03B3
:10092000822F83708230E1F0E114F10421F08DE632
:1009300090E00E9400001F9282E08F9380918B03D1
:1009400083701F928F938AE793E09F938F930E9407
:1009500019030F900F900F900F900F900F904ACFA8
:100960008091CA0180688093CA0180910302381285
:1009700054C0822F8695869586958A3108F089E144
:1009800038E0839FC00111242770822B80938B0352
:10099000FA01E857FC4F178280918C0383FF21C036
:1009A00089E693E09F938F930E94190381E2E8E820
:1009B000F3E0A7E6B3E001900D928A95E1F780910C
:1009C0006B03877F806180936B0380910302809328
:1009D00068030093690387E693E00E941B100F9061
:1009E0000F9090918C0394FD0BC02D81233081F4E6
:1009F00080918D0321EF280F233008F050C0FACEEC
:100A0000A6EDB2E0BF93AF930E9419030F900F9031
:100A100088E893E00E94F40AEDCEFFEF3F1236C063
:100A2000AAECB2E0BF93AF930E9419030F900F900E
:100A30002D81233031F58091C90182FF03C0173029
:100A400009F4D8CE183009F4D5CE143109F0D2CE3D
:100A5000809104022812CECE0E949E1373708827C4
:100A600099270E9464131091040225E143E06FEF7F
:100A7000802F0E94D011612F0E948C0E0E94230FA4
:100A8000B9CE809104022812B5CEC2CFA3EBB2E05A
:100A9000BF93AF930E9419030F900F90ABCE143009
:100AA00029F40E947C120E947403A4CE183021F510
:100AB0001091C90110FF1BC00E947C128F3F09F4E6
:100AC00099CE8F5F8F3F09F495CE909105028917DB
:100AD00008F090CE11FD8ECE8093050200930402A3
:100AE0001F928F931F920F938DE493E02ECF85E397
:100AF00093E09F938F93CECF1831C1F40E947C1264
:100B00001F928F931F920F9389E193E09F938F938E
:100B10000E94190329E143E06FEF802F0E94D0115A
:100B200061E00E948C0E0E94230F13CF1931A9F4AB
:100B30008091C90183FF0EC0877F8093C9010E9405
:100B40007C128093CB011F928F9380E093E09F9360
:100B50008F933AC0A3EEB2E09BCF2091890321117D
:100B600080C18D3099F480E090E0892B21F08BE0FA
:100B700090E00E94000098E088E10FB6F894A895F4
:100B8000809360000FBE90936000FFCF8B3119F50A
:100B90000E947C1291E0811101C090E08091CF0110
:100BA00090FB80F98093CF01E114F10421F08AE0F9
:100BB00090E00E9400008091CF0181701F928F937E
:100BC000AEE9B2E0BF93AF930E9419030F900F906C
:100BD0000F900F900FCE8630A9F490918F03992338
:100BE00029F081E09D3419F080E001C0898580936F
:100BF000CE0141E050E063E071E08EEC91E00E94B4
:100C0000361DF8CD833119F40E942A10F3CD8231BC
:100C1000F1F40E94DA026D837E838F83988726E148
:100C200043E06FEF80E00E94D011FC0184818F715E
:100C3000806A848383818770806283838D819E81B3
:100C4000AF81B88587839087A187B287DAC081306A
:100C500001F5A0E0B0E0AB2B09F4CCCD92959695D0
:100C60009770953049F460918F0370919003809153
:100C70009103909192030AC0911105C08FE893E00F
:100C80000E946C1703C060E070E0CB010E9400007E
:100C9000B1CD8A3009F4AECD8C3109F0B9CE809156
:100CA0008F03823509F4A6CD8635B1F58EE48093A5
:100CB0007C0066E470E080E090E00E946413809124
:100CC0007A00806480937A0080917A0086FDFCCF60
:100CD00020907800309079002CE143E06FEF80E0C5
:100CE0000E94D0118C01FC0184818F718066848305
:100CF0008381877080618383910140E050E0C3016C
:100D0000B2010E94BD1DD80118963C932E931797EF
:100D1000C8010E941B106ECD863409F052C0F894B1
:100D20008FEF86BB10928500109284001092800095
:100D300010928200909160002DE088E10FB6F89447
:100D4000A895809360000FBE2093600080916000A2
:100D5000806480936000A89585E0809381008091F5
:100D6000600087FFFCCF10928100A8958091600001
:100D70008861809360009093600078942090840054
:100D8000309085002CE143E06FEF80E00E94D011AD
:100D90008C01FC0184818F718066848383818770DC
:100DA00080618383C101A0E0B0E0BC01CD014BE0D4
:100DB000660F771F881F991F4A95D1F7A5019401E7
:100DC000A0CF8D3401F50091B2031091B30301154A
:100DD000110511F406EB13E02CE143E06FEF80E026
:100DE0000E94D011FC0184818F718066848383818D
:100DF0008770806183838B819C81801B910B90879E
:100E00008783CF0186CF853409F0F4CC2CE143E011
:100E10006FEF80E00E94D0116BE471E00E94980EA9
:100E20000E941B1000E010E06FEFC8010E94461DF9
:100E30000F5F1F4F0D39B1E01B07B1F780E090E065
:100E4000892B21F08BE090E00E94000098E088E17F
:100E50000FB6F894A895809360000FBE9093600041
:100E6000FFCF8A3109F0D4CDC5CC2C960FB6F894BB
:100E7000DEBF0FBECDBFDF91CF911F910F91FF90CD
:100E8000EF90DF90CF90BF90AF909F908F907F902A
:100E90006F905F904F903F902F9008950F931F9306
:100EA0000E94DA022091CA012077203729F000E160
:100EB00017E220E030E004C000E61AEE20E030E067
:100EC000061717072807390770F48CE892E09F93FC
:100ED0008F930E9419030F900F908DE191E01F9165
:100EE0000F910C94ED021F910F9108958091CA010A
:100EF000982F9077903759F0982F92959F709F5F19
:100F000097709295907F8F78892B8093CA018091FA
:100F1000CA01829587701F928F938BE792E09F930F
:100F20008F930E9419038091C9018B7F8F7E8093DC
:100F3000C9010F900F900F900F9080E090E0892BE7
:100F400021F087E690E00E9400008DE692E09F93FA
:100F50008F930E94190329980F900F906CE080E204
:100F60000C94FF0E8091CA018F70863060F084E58A
:100F700092E09F938F930E9419030F900F9088E146
:100F800091E00C94ED020895809105021F928F93D9
:100F9000809104021F928F93809103021F928F937E
:100FA00085E392E09F938F930E9419038091C9017A
:100FB00084608093C9018091CA0180788093CA01BE
:100FC000E091CC01F091CD018DB79EB708960FB698
:100FD000F8949EBF0FBE8DBF309709F00994089515
:100FE0008091CB018F3F79F10E949E136093C501E0
:100FF0007093C6018093C7019093C80189E292E083
:101000009F938F930E9419039091CB0180910502C9
:101010000F900F909817A1F01F929F931F928F939C
:1010200081E192E09F938F930E9419038091CB01FD
:10103000809305020F900F900F900F900F900F90DC
:1010400084E191E025C00E94DA02613D774081058C
:10105000910500F18091C901803618F480E191E09A
:1010600017C082E092E09F938F930E9419038091B2
:10107000C901877F8093C9010F900F9080E090E0B5
:10108000892B21F08AE690E00E94000088E191E03F
:101090000C94ED02089589EF91E09F938F930E9445
:1010A00019030F900F9080E090E0892B21F088E0E9
:1010B00090E00E9400008FEF8093CB018091C901E6
:1010C00088608093C90128E143E06FEF80E00E94CF
:1010D000D01161E00E948C0E0C94230F80910302CA
:1010E0008F3F99F08EEE91E09F938F930E941903AA
:1010F0000F900F9080E090E0892B21F087E090E046
:101100000E94000080E191E020C00E94DA02613D6F
:10111000774081059105D8F08091C901803618F497
:101120008CE091E012C080EE91E09F938F930E943B
:1011300019030F900F9080E090E0892B21F089E651
:1011400090E00E94000088E091E00C94ED02089588
:1011500088ED91E09F938F930E9419030F900F9059
:10116000809103028F3FE1F480E090E0892B21F031
:1011700086E090E00E9400008CEC91E09F938F93BA
:101180000E94190323E043E06FEF80E00E94D0113A
:101190006AE471E00E94980E0F900F900C94230F58
:1011A00008950E94DA02613D77408105910520F49F
:1011B0008091C90181FF0895809104028F3FC1F0A1
:1011C0008FEB91E09F938F930E9419038091C90147
:1011D0008E7F8093C9010F900F9080E090E0892B63
:1011E00021F085E090E00E9400008CE091E021C0B9
:1011F0008091C901803658F48BE991E09F938F93D9
:101200000E9419030F900F9088E191E012C08FEABD
:1012100091E09F938F930E9419030F900F9080E0AD
:1012200090E0892B21F088E690E00E94000088E0A1
:1012300091E00C94ED0281E991E09F938F930E94DD
:1012400019030F900F9080E090E0892B21F084E04B
:1012500090E00E9400008091C901897F81608093A5
:10126000C9018FEF809305028093040227E043E0D9
:101270006FEF0E94D0116AE471E00E94980E0C9406
:10128000230FCF93219A229ACFB7F89480917001BF
:10129000811127C0EEE3F5E08491E2E5F5E0949159
:1012A000E82FF0E0EE0FFF1FE551FB4FA591B49141
:1012B000EC91E92321F461E08AE00E94DC1261E014
:1012C0008AE00E9428138CB580618CBD8CB5806447
:1012D0008CBD61E08DE00E94281361E08BE00E94EC
:1012E0002813809170018F5F80937001CFBF299880
:1012F0002A9A6EE080E20E94FF0E65E070E080E0D6
:1013000090E00E94641363E083E20E94FF0E6FE5A9
:1013100084E20E94FF0E6CE485E20E94FF0E67E209
:1013200086E20E94FF0E63E780E50E94FF0E66E002
:101330008DE30E94FF0E21E041E060E070E086E076
:101340000E94CD0EC82F21E041E060E070E085E012
:101350000E94CD0E8C3409F049C0C73209F046C056
:1013600062E082E20E94FF0E60E081E20E94FF0ED6
:1013700063E08CE30E94FF0E8FEF8093030120E077
:1013800045E063E071E08BE20E94CD0E20E045E095
:1013900063E071E08AE20E94CD0E20E045E063E068
:1013A00071E080E30E94CD0E82EE0E941D0F81EE5F
:1013B0000E941D0F60E787E20E94FF0E80E891E027
:1013C0009F938F930E9419038091C901806180933C
:1013D000C901809103020F900F908F3FC1F00E94CE
:1013E0007403811114C088E091E013C08CE691E091
:1013F0009F938F930E9419030F900F9080E090E0CD
:10140000892B89F387E690E00E940000ECCF88E109
:1014100091E0CF910C94ED0282E691E09F938F933F
:101420000E941903E9ECF1E08081877F8F7E808341
:101430001092C5011092C6011092C7011092C80106
:101440000F900F9043E050E060E070E083E092E0A6
:101450000C94261D1F920F920FB60F9211240F901D
:101460000FBE0F901F9018952091BD013091BE01C5
:101470002817390771F49091BC018091BB0198172E
:1014800041F0E091BC01F0E0E558FE4F808190E032
:1014900008958FEF9FEF089508951F93CF93DF93E3
:1014A000DC015C962D913C915D972115310539F455
:1014B00081E090E013969C938E9312973DC05196D5
:1014C000ED91FC91529750969C915097892F809561
:1014D0001FB75E964C915E9741FB772770F941FDEF
:1014E0006095F8944081772311F0492B01C048237F
:1014F0004083E9012197F1F748E0508160FF02C085
:10150000592B01C058235083E9012197F1F76695C3
:10151000415099F7772321F090818923808303C07C
:101520008081982B90831FBF5C968D919C915D97D5
:101530000197F1F721E030E0C901DF91CF911F91D0
:1015400008952091BD013091BE012817390771F42B
:101550008091BB012091BC0190E0805C9F4F821B79
:10156000910960E470E00E94A91D089580E090E078
:1015700008952091BD013091BE0128173907B9F4B3
:101580009091BC018091BB01981789F0E091BC015A
:10159000F0E0E558FE4F80812091BC0130E02F5FE4
:1015A0003F4F2F7333272093BC0190E008958FEFB6
:1015B0009FEF0895E091BD01F091BE01E817F90792
:1015C00069F4A389B4899C918589809589238C933A
:1015D0001092BE011092BD0181E0089580E008954F
:1015E000089580E090E008951F93CF93DF93EC017E
:1015F0008D8190E08831910509F048C08E8181117C
:1016000010C0CE0107960E944E1780937A0191E098
:1016100090937901682F87E293E00E948C0E0E94DC
:10162000C3121E81113079F4CE0107960E944E1725
:101630008093780110937701682F86E093E00E94F1
:101640008C0E0E94C3128E81833081F4CE010796E6
:101650000E944E178093760191E090937501682F58
:1016600084EC92E00E948C0E0E94C3128E81843022
:1016700011F5CE0107960E944E178093740191E0F8
:1016800090937301682F83EA92E00EC0039799F458
:10169000CE0107960E944E178093720191E09093BD
:1016A0007101682F85EE92E00E948C0EDF91CF9140
:1016B0001F910C94C312DF91CF911F9108952BE0DD
:1016C00043E06FEF80E00E94D0116EE471E00E9471
:1016D000980E0E941B102CE043E06FEF80E00E9408
:1016E000D0116BE671E00E94980E0E941B1067E11A
:1016F00080E00E94A11267E181E00E94A11264E0F3
:1017000082E00E94A11267E183E00E94A11267E1DA
:1017100084E00C94A112AF92BF92CF92DF92EF922D
:10172000FF920F931F93CF93DF931F92CDB7DEB736
:10173000B82EA62E680179016EE788E493E049830C
:101740000E944D0A6FEF88E493E00E944D0A66E024
:1017500088E493E00E944D0A6B2D88E493E00E9498
:101760004D0A60E088E493E00E944D0A6A2D88E407
:1017700093E00E944D0A4981642F88E493E00E941F
:101780004D0A6FEE88E493E00E944D0AC701B6014E
:101790000F90DF91CF911F910F91FF90EF90DF900D
:1017A000CF90BF90AF900C946413FF920F931F9350
:1017B000CF93DF9300D000D0CDB7DEB788E493E0BD
:1017C0000E94A10A892BD1F380917901882309F421
:1017D00004C180917A01813009F49FC0823009F4FC
:1017E0009CC08330B1F0843009F497C0853009F48F
:1017F00094C0863029F4809172010E941815EAC0C5
:10180000873029F4809178010E940A15E3C088305E
:1018100039F40AE010E020E030E04091740182C029
:101820008A3069F08B3059F08C3029F404E610E0EE
:1018300020E030E076C08D3011F08E3029F404E1E4
:1018400010E020E030E06DC08F3049F40AE010E095
:1018500020E030E04091740160917601B9C08031A0
:1018600041F40AE010E020E030E040E060E081E197
:10187000AFC0813149F40AE010E020E030E040914F
:10188000740160E082E1A4C0823149F40AE010E012
:1018900020E030E04091740160E083E199C0833141
:1018A00079F4609176016F7080E1689FB001112436
:1018B0000AE010E020E030E04091740184E188C04B
:1018C000843141F404E110E020E030E040E060E0E9
:1018D00085E17EC0853141F404E110E020E030E094
:1018E00040E060E086E174C0863161F0873141F408
:1018F00004E110E020E030E040E060E088E168C012
:10190000883149F40AE010E020E030E040917601AF
:1019100060E087E15DC0893139F40AE010E020E041
:1019200030E040E060E054C08A3109F053C00E94CA
:10193000E013FC0197FD11C08D32910591F0C09725
:101940000A9778F0E0910602F09107020284F3858D
:10195000E02D86E092E00995EACF40E050E0BA0140
:101960002FC020E030E0A901F12CE130F10509F0B1
:1019700056C0E0910602F09107020284F385E02D43
:1019800086E092E029833A834B835C8309950E9429
:10199000E013FC01C09729813A814B815C810A9751
:1019A00020F3E130F10509F3FF2009F458C0DA0112
:1019B000C90144275527BA01481B590B6A0B7B0BF9
:1019C000852F99270AE010E020E030E0682F88E0BA
:1019D0000E948B0B1092790145C08091770188237A
:1019E00099F080917801882351F0813041F0823064
:1019F00031F0833021F0843011F0853011F40E94F1
:101A00000A15109277012EC080917101882351F13F
:101A1000809172010E9418151092710123C0ED325D
:101A2000F105D1F0CF01C0970A9708F0A2CFAAE044
:101A3000B0E00E94581D8F01FF0F220B330BDC0119
:101A4000CB01800F911FA21FB31F9C01AD0120533A
:101A50003109410951098DCFFF24F3948ACFBA018E
:101A6000A901AECF0F900F900F900F90DF91CF9103
:101A70001F910F91FF9008950F931F93109263038E
:101A800010926203109261031092600310925F0340
:101A900010925E038DE991E0909365038093640357
:101AA00090915403963108F057C02DEB30E03093FD
:101AB0005F0320935E032BE931E0309361032093B1
:101AC00060032CE231E030936303209362032091A2
:101AD0006800983050F031E09E3008F430E081E04A
:101AE00001C0880F3A95EAF701C084E0822B809309
:101AF0006800983038F09E3040F0963148F020E091
:101B000030E008C02DE630E005C02BE630E002C032
:101B10002CE630E030935C0320935B03983030F484
:101B200081E001C0880F9A95EAF70EC0292F30E0B6
:101B30009E3018F42850310902C02E50310981E03E
:101B400001C0880F2A95EAF780935D0380916403B2
:101B5000909165030197F1F780916203909163037F
:101B6000892B21F18091BD019091BE0123E0883441
:101B70009207E1F0009711F00E94DA0A8091660363
:101B80008E7F809366031092BB011092BC0188E4A3
:101B900093E09093BE018093BD01E0915B03F091CF
:101BA0005C03908180915D03892B808380E69AEEAF
:101BB000A0E0B0E080934C0390934D03A0934E03BC
:101BC000B0934F0304E610E020E030E040E060E036
:101BD0008CE00E948B0B08EC10E020E030E042E04B
:101BE00060E089E00E948B0B68E181E00E94B712FF
:101BF0008093780163E082E00E94B71280937201C3
:101C000068E183E00E94B7128093760168E184E086
:101C10000E94B71280937401809172011F910F91FD
:101C20000C9418151F920F920FB60F9211242F9338
:101C30003F934F935F936F937F938F939F93AF9354
:101C4000BF93EF93FF93E091BD01F091BE013097F8
:101C500009F451C0968DA685B785858591FF04C08E
:101C60009C91892329F447C09C91892309F043C0A2
:101C7000A389B4899C918589809589238C938689D1
:101C800097890197F1F7608D718DA685B785558588
:101C900038E020E0CB010197F1F7822F90E0959595
:101CA0008795282F4C91452309F02068315091F7F2
:101CB000868D81FD20958091BB0190E001968F7308
:101CC00099273091BC01381749F0A091BB01B0E0D1
:101CD000A558BE4F2C938093BB0103C0868D8160B5
:101CE000868F828D938D0197F1F7A389B4899C919A
:101CF0008589892B8C93FF91EF91BF91AF919F9133
:101D00008F917F916F915F914F913F912F910F90A4
:101D10000FBE0F901F901895FC018381877088601B
:101D2000838384818F71806284836783CF01089568
:101D30000F931F93CF93DF93EC016115710561F051
:101D4000FB0101900020E9F73197E61BF70BE93121
:101D5000F10518F0E9E101C0E0E00E2F10E0C80144
:101D600023E0880F991F2A95E1F79B819770892BB3
:101D70008B838C818F718C83EE2329F0A801CE0197
:101D800007960E94FE1DFE01E00FF11F1782CE0193
:101D9000DF91CF911F910F91089591E59CBD91E046
:101DA0009DBD2A98E3E2F0E03197F1F78EBD000087
:101DB0000DB407FEFDCF8EB5FB019FEF4150C8F07B
:101DC000222361F09EBD00000DB407FEFDCF8EB54D
:101DD0006115710599F380833196F0CFDF0111967B
:101DE00080818EBD00000DB407FEFDCF8EB5FD01D4
:101DF000E5CF2A9AE3E2F0E03197F1F70895CF9327
:101E0000DF931F92CDB7DEB7698320E041E0BE01CA
:101E10006F5F7F4F0E94CD0E0F90DF91CF9108959D
:101E20006FE080E20E94FF0E60911C016F3F19F08D
:101E30008AE20E94FF0E299A089520E040E060E0C7
:101E400070E00C94CD0EAF92BF92CF92DF92EF92E2
:101E5000FF920F931F93CF93DF93EC018A819091B0
:101E6000C90190FF0CC08F3F79F080E594E09F930B
:101E70008F930E9419030F900F9010E0D0C08F3FF6
:101E800019F00091040201C00FEF809103028883D2
:101E90004B8142FD06C046954695469517E0140FC6
:101EA00001C010E280E090E0892B21F080E090E01A
:101EB0000E940000299883E092E00197F1F76EE01C
:101EC00080E20E94FF0E8BE891E00197F1F7602F0E
:101ED0008AE20E94FF0E602F80E30E94FF0E81EED7
:101EE0000E941D0F0F3F11F080EA01C080EB412FCF
:101EF000113208F040E220E0BE010E94CD0E299A86
:101F0000E12CF12C8FEF0E941D0F182F807321F40C
:101F100081E0E81AF108B1F7299860E387E20E94AE
:101F2000FF0E14FF03C081EE0E941D0F0E94100FD0
:101F300015FB112710F981E00F3F09F080E0182B05
:101F4000CE010E94DF11111103C0E2E6F1E002C0F0
:101F5000EBE4F1E06091CA016F702B8122FBAA24AF
:101F6000A0F8322F3695369536952C81B22EB29444
:101F7000B69447E0B422CD802770DE80EA80A02F9F
:101F8000B0E0F8807981111103C047E651E002C04A
:101F90004AE451E09F938F93FF93EF931F926F93C7
:101FA0001F92AF921F923F931F92BF921F92CF92A8
:101FB0001F922F931F92DF921F92EF92BF93AF93C6
:101FC0001F92FF921F927F935F934F9385E094E05F
:101FD0009F938F930E9419038DB79EB74E960FB6AD
:101FE000F8949EBF0FBE8DBF80910402081317C0E6
:101FF000111110C080E090E0892B21F085E690E07F
:102000000E9400008091CA0191E0980F9F70807F2C
:10201000892B03C08091CA01807F8093CA01812FE0
:10202000DF91CF911F910F91FF90EF90DF90CF90B4
:10203000BF90AF9008952091C90122FD0C94230F09
:1020400086E694E09F938F930E9419030F900F9060
:1020500080E00895CF9380E090E0892B21F08CE020
:1020600090E00E9400002FE043E06FEF80E00E94CC
:10207000D0116AE471E00E94980E80916A03877023
:10208000806180936A0380916B038F71806C809371
:102090006B0381E080936E0310926F0387E693E0F9
:1020A0000E941B108FE00E94AA1361E18FEF0E9433
:1020B000A112C091040226E043E06FEF80E00E948D
:1020C000D0116C2F0E948C0E0E941B1086E00E9483
:1020D000AA13CF910C945F0BCF938091CF0181FD18
:1020E0002FC00E942A1084E794E09F938F930E9450
:1020F00019030F900F9080E090E0892B21F089E088
:1021000090E00E9400008091CF0181608093CF0118
:10211000C4E02AE143E06FEF80E00E94D01162E06A
:102120000E948C0E0E941B108BE10E94AA13811149
:1021300002C0C15071F78091CF0182608093CF01BE
:10214000CF9108953FB7F8948091AE039091AF037B
:10215000A091B003B091B10326B5A89B05C02F3F55
:1021600019F00196A11DB11D3FBFBA2FA92F982FBD
:102170008827820F911DA11DB11DBC01CD0142E038
:10218000660F771F881F991F4A95D1F70895089504
:10219000CF92DF92EF92FF920F931F93CF93DF9333
:1021A0006C017A018B01C0E0D0E0CE15DF0589F02B
:1021B000D8016D918D01D601ED91FC910190F081D6
:1021C000E02DC6010995892B11F47E0102C02196EC
:1021D000ECCFC701DF91CF911F910F91FF90EF904E
:1021E000DF90CF900895FC01538D448D252F30E072
:1021F000842F90E0821B930B541710F0CF96089514
:1022000001970895FC01918D828D981761F0828D60
:10221000DF01A80FB11D5D968C91928D9F5F9F731A
:10222000928F90E008958FEF9FEF0895FC01918DBC
:10223000828D981731F0828DE80FF11D858D90E029
:1022400008958FEF9FEF0895FC01918D228D892FC6
:1022500090E0805C9F4F821B91098F7399270895AE
:1022600086E092E00E94241121E0892B09F420E00D
:10227000822F0895FC01848DDF01A80FB11DA35AA0
:10228000BF4F2C91848D90E001968F739927848F96
:10229000A689B7892C93A089B1898C9180648C938D
:1022A000938D848D981306C00288F389E02D808178
:1022B0008F7D80830895EF92FF920F931F93CF93AA
:1022C000DF93EC0181E0888F9B8D8C8D981305C086
:1022D000E889F989808185FD24C0F62E0B8D10E0F8
:1022E0000F5F1F4F0F731127E02E8C8DE8120CC06B
:1022F0000FB607FCFACFE889F989808185FFF5CF11
:10230000CE010E943A11F1CF8B8DFE01E80FF11D35
:10231000E35AFF4FF0820B8FEA89FB89808180624C
:1023200007C0EE89FF896083E889F989808180642C
:10233000808381E090E0DF91CF911F910F91FF901A
:10234000EF900895CF93DF93EC01888D8823C9F037
:10235000EA89FB89808185FD05C0A889B9898C91AE
:1023600086FD0FC00FB607FCF5CF808185FFF2CF49
:10237000A889B9898C9185FFEDCFCE010E943A11D1
:10238000E7CFDF91CF91089580E090E0892B29F08D
:102390000E94301181110C94000008950E94F91DD3
:1023A000E7E6F3E0909103029183828366832583BD
:1023B00047708481807E482B4483CF0108950F931A
:1023C0001F93CF93DF93EC018C8182958695877064
:1023D00091F44B8146954695469550E0BE01695F64
:1023E0007F4F80ED91E00E94FE1DEB81E695E69522
:1023F000E695F0E077C0813031F48F814AE060EDFE
:1024000071E090E007C0823041F44AE060ED71E095
:102410008F8198850E94931768C0833041F44AE009
:1024200060ED71E08F8198850E94EC175EC084306A
:1024300051F46F81788589859A852AE040ED51E0D5
:102440000E949E1752C0853051F46F81788589852E
:102450009A852AE040ED51E00E94CA1746C08730B5
:1024600071F42B85293008F028E06F817885898503
:102470009A8500ED11E042E00E942E1736C08630AA
:10248000A1F520E0EB81E695E695E6952E1738F567
:10249000E22FF0E0AF01440F551FDA01A053BE4F09
:1024A000EC0FFD1F8781082E000C990B34E09595E9
:1024B00087953A95E1F78F708A3010F4805D01C0FE
:1024C000895C8C93DA01AF52BE4F87818F708A305E
:1024D00010F4805D01C0895C8C932F5FD3CFF0E056
:1024E000EE0FFF1FE053FE4F108280ED91E0DF9171
:1024F000CF911F910F91089580918C0382958695BD
:102500008770813019F480918F030895811105C07F
:102510008FE893E00E944E17089580E00895009799
:1025200069F0FC0101900020E9F73197AF01481BE9
:10253000590BBC0186E092E00C94C81080E090E05A
:102540000895CF93DF93262F8F3F19F0CAE4D1E08F
:1025500002C0C9E6D1E040E0682F80E00E94D011BF
:10256000BE010E94980EDF91CF910C941B10262F74
:1025700042E0682F80E00E94D0116AE471E00E947E
:10258000980E0C941B10FC018091030281839481AE
:10259000907F916094838091CF0180FF03C0CF0131
:1025A0000C941B1089E095E09F938F930E94190370
:1025B0000F900F9080E0089590E0FC01EB50FB4FEE
:1025C0003491FC01E85BFA4F2491FC01EC5CFA4F7A
:1025D000E491EE2309F43BC0332339F1333091F019
:1025E00038F43130A9F0323001F584B58F7D12C056
:1025F000373091F03830A1F03430B9F48091800058
:102600008F7D03C0809180008F77809380000DC004
:1026100084B58F7784BD09C08091B0008F7703C0E7
:102620008091B0008F7D8093B000F0E0EE0FFF1F2F
:10263000E05EFA4FA591B4918FB7F894EC916111D7
:1026400003C020952E2301C02E2B2C938FBF0895FD
:10265000CF93DF9390E0FC01E85BFA4F2491FC01FB
:10266000EC5CFA4F8491882361F190E0880F991F08
:10267000FC01E551FB4FC591D491FC01E05EFA4F9E
:10268000A591B491611109C09FB7F89488812095F4
:1026900082238883EC912E230BC0623061F49FB7B4
:1026A000F8943881822F809583238883EC912E2B98
:1026B0002C939FBF06C08FB7F894E8812E2B2883F8
:1026C0008FBFDF91CF9108958F929F92AF92BF926B
:1026D000CF92DF92EF92FF926B017C010E94A210D9
:1026E0004B015C01C114D104E104F104F1F00E943A
:1026F000A210DC01CB0188199909AA09BB09883EFF
:102700009340A105B10570F321E0C21AD108E10898
:10271000F10888EE880E83E0981EA11CB11CC1143C
:10272000D104E104F10419F7DDCFFF90EF90DF90C1
:10273000CF90BF90AF909F908F9008952FB7F8944F
:102740006091AA037091AB038091AC039091AD03AB
:102750002FBF0895CF92DF92EF92FF92CF93DF9336
:10276000D82F0E949E136B017C0181E0D11180E083
:1027700080938D03C0E00E949E13AB01BC014C19F5
:102780005D096E097F09403D57406105710580F480
:10279000C1110EC0A8950E94B50390918C0397704B
:1027A000933049F7C1E080918D038D13E3CFE3CFE0
:1027B0008C2FDF91CF91FF90EF90DF90CF90089515
:1027C0000F931F930E949E1360930E0270930F024B
:1027D0008093100290931102E0910602F09107029B
:1027E0000484F585E02D86E092E0099597FF1FC0EF
:1027F0000E949E1300910E0210910F022091100270
:1028000030911102DC01CB01801B910BA20BB30BA9
:1028100000910A0210910B0220910C0230910D02DE
:1028200080179107A207B307B8F28FEF9FEF1F91B0
:102830000F9108951F920F920FB60F9211242F93AC
:102840003F938F939F93AF93BF938091AA039091EF
:10285000AB03A091AC03B091AD033091A90323E089
:10286000230F2D3720F40196A11DB11D05C026E8C8
:10287000230F0296A11DB11D2093A9038093AA03E3
:102880009093AB03A093AC03B093AD038091AE03E0
:102890009091AF03A091B003B091B1030196A11D37
:1028A000B11D8093AE039093AF03A093B003B09398
:1028B000B103BF91AF919F918F913F912F910F9055
:1028C0000FBE0F901F9018951F920F920FB60F9288
:1028D00011242F933F934F935F936F937F938F9325
:1028E0009F93AF93BF93EF93FF93E0912301F091F8
:1028F00024010995FF91EF91BF91AF919F918F9125
:102900007F916F915F914F913F912F910F900FBEEB
:102910000F901F9018951F920F920FB60F921124CF
:102920002F933F934F935F936F937F938F939F93D7
:10293000AF93BF93EF93FF93E0912101F0912201B8
:102940000995FF91EF91BF91AF919F918F917F91E9
:102950006F915F914F913F912F910F900FBE0F900C
:102960001F9018951F920F920FB60F9211242F935C
:102970003F934F935F936F937F938F939F93AF9307
:10298000BF93EF93FF9386E092E00E943A11FF918C
:10299000EF91BF91AF919F918F917F916F915F91D7
:1029A0004F913F912F910F900FBE0F901F90189550
:1029B0001F920F920FB60F9211242F938F939F9314
:1029C000EF93FF93E0911602F09117028081E0915E
:1029D0001C02F0911D0282FD12C0908180911F02A5
:1029E0008F5F8F7320912002821751F0E0911F02B8
:1029F000F0E0EA5FFD4F958F80931F0201C0808158
:102A0000FF91EF919F918F912F910F900FBE0F909B
:102A10001F9018950F931F9304E110E020E030E021
:102A2000482F60E087E00E948B0B1F910F91089563
:102A30000F931F938F3108F08EE10AE010E020E041
:102A400030E0482F60E086E00E948B0B1F910F91D1
:102A500008958BE391E0909349038093480388E4C1
:102A600093E00C94DA0A789484B5826084BD84B5CE
:102A7000816084BD85B5826085BD85B5816085BD79
:102A800080916E00816080936E0010928100809131
:102A900081008260809381008091810081608093B9
:102AA0008100809180008160809380008091B100DE
:102AB00084608093B1008091B00081608093B00009
:102AC00080917A00846080937A0080917A0082609D
:102AD00080937A0080917A00816080937A0080915F
:102AE0007A00806880937A001092C100A89580E0F7
:102AF00090E0892B11F00E940000E0911602F09105
:102B0000170282E08083E0911202F091130210829A
:102B1000E0911402F091150280E1808310921E0270
:102B2000E0911A02F0911B0286E08083E091180286
:102B3000F0911902808180618083E0911802F09108
:102B40001902808188608083E0911802F091190257
:102B5000808180688083E0911802F0911902808161
:102B60008F7D808383EC94E09F938F930E94190361
:102B70008091CF018D7F8093CF010F900F9080E0E7
:102B800090E0892B51F086EB94E09F938F930E9405
:102B900019030E9400000F900F9041E050E063E0A5
:102BA00071E08EEC91E00E94261D6FEF81E090E0D5
:102BB0000E94461D8091CA018F788093CA011092AD
:102BC000C0011092BF018DE191E00E94ED028CE600
:102BD00090E19093CD018093CC011F921F921F92A0
:102BE0001F9281E894E09F938F930E9419030E94A3
:102BF0009E130F900F900F900F900F900F900E94C8
:102C00009E130E94B503A8958091C90182FFF7CF5A
:102C100089EA94E09F938F930E9419030E943C0DD0
:102C20000F900F908091C90182FB882780F91F9235
:102C30008F9381E994E09F938F930E941903A89545
:102C40000F900F900F900F90A8950E94B5030E94CF
:102C5000D50B0E94C411F8CFCF93DF93FC011082F3
:102C600011821282148215821682DC0117968AE183
:102C7000ED0119928A95E9F782E08383DF91CF9184
:102C80000895CF92DF92EF92FF92CF93DF9310924D
:102C900009021092080298EEC92E93E0D92EE12C79
:102CA000F12CC0920A02D0920B02E0920C02F09238
:102CB0000D0289E291E0909307028093060285EC71
:102CC00090E0909313028093120284EC90E0909332
:102CD00015028093140280EC90E090931702809389
:102CE000160281EC90E0909319028093180282EC16
:102CF00090E090931B0280931A0286EC90E09093F0
:102D00001D0280931C0210921F021092200210924A
:102D100021021092220288E893E00E942C1687E696
:102D200093E00E942C1610924B0310924A03C0921B
:102D30004C03D0924D03E0924E03F0924F038BE38D
:102D400091E0909349038093480310925F0310929F
:102D50005E0310926103109260031092630310925D
:102D600062031092650310926403609166036E7FA4
:102D70006D7F609366036695617081E0682783E0EC
:102D80000E94DC1261E083E00E942813EBE4F5E08E
:102D9000E491E0935803E7E3F5E0E491F0E0EE0F0F
:102DA000FF1FE05EFA4F8591949190935A038093B0
:102DB000590360E082E00E9428138091660381FD40
:102DC00004C061E082E00E94DC12D2E0D0935403A0
:102DD000EAE4F5E0E491E0935503E6E3F5E0E491FD
:102DE000F0E0EE0FFF1FE65DFA4F8591949190930E
:102DF00057038093560387E293E00E942C161092AB
:102E00002D03C8E1C0932C0386E093E00E942C16AA
:102E100081E080930C03C0930B0385EE92E00E9447
:102E20002C16D093EB02D3E0D093EA0284EC92E02C
:102E30000E942C16D093CA02C093C90283EA92E082
:102E40000E942C1684E08093A902C093A802DF910F
:102E5000CF91FF90EF90DF90CF900895EF920F9376
:102E60001F93CF93DF93E80147FD02C034E001C018
:102E700034E1E42F440FFF0BF7FF03C0F195E19518
:102E8000F109E32E022F2E2FAE010E94041ACE016B
:102E9000DF91CF911F910F91EF900895FC0188274A
:102EA0009927E89421912032E9F3293010F02E304F
:102EB000C8F32B3241F02D3239F4689404C00E94DB
:102EC000C217820F911D219120532A30C0F31EF4A6
:102ED000909581959F4F08951F93FC01992788270E
:102EE000BC01E89411911032E9F3193010F01E3052
:102EF000C8F31B3251F01D3249F4689406C00E9499
:102F0000AD17610F711D811D911D119110531A3064
:102F1000B0F33EF490958095709561957F4F8F4FFB
:102F20009F4F1F910895BB274A3031F4992322F413
:102F3000BDE2909581959F4F0C94ED17BB272A30E9
:102F400051F4992342F4BDE2909580957095619576
:102F50007F4F8F4F9F4F0C94CB17592F482F372FF0
:102F6000262F660F771F881F991F660F771F881FF0
:102F7000991F620F731F841F951F660F771F881F8D
:102F8000991F08957AE0979F902D879F802D910D2E
:102F900011240895BB27FA01A62F62177105810538
:102FA0009105330B30FB66F0AA27660F771F881F49
:102FB000991FAA1FA21710F0A21B63953850A9F7FA
:102FC000A05DAA3308F0A95DA19336F7B111B193C2
:102FD0001082CA010C94801CBB27FB015527AA272D
:102FE000880F991FAA1FA41710F0A41B8395505196
:102FF000B9F7A05DAA3308F0A95DA193009779F70E
:10300000B111B1931192CB010C94801CAEE0B0E0F1
:10301000ECE0F8E10C94711D8C01CA014EE04C8388
:103020001A83098377FF02C060E070E8FB013197E3
:10303000FE83ED83A901BC01CE0101960E943218E6
:103040004D815E8157FD0AC02F8138854217530795
:103050000CF49A01F801E20FF31F10822E96E4E0BF
:103060000C948D1DACE0B0E0E8E3F8E10C94631D36
:103070007C016B018A01FC0117821682838181FF2A
:10308000BDC1CE0101964C01F7019381F60193FD7C
:10309000859193FF81916F01882309F4ABC185323B
:1030A00039F493FD859193FF81916F01853229F465
:1030B000B70190E00E94901CE7CF512C312C20E00A
:1030C0002032A0F48B3269F030F4803259F0833230
:1030D00069F420612CC08D3239F0803339F42160DD
:1030E00026C02260246023C0286021C027FD27C09D
:1030F00030ED380F3A3078F426FF06C0FAE05F9ED4
:10310000300D1124532E13C08AE0389E300D112447
:10311000332E20620CC08E3221F426FD6BC1206458
:1031200006C08C3611F4206802C0883641F4F601DE
:1031300093FD859193FF81916F018111C1CF982FEC
:103140009F7D9554933028F40C5F1F4FFFE3F98364
:103150000DC0833631F0833771F0833509F05BC0E1
:1031600022C0F801808189830E5F1F4F442443945D
:10317000512C540115C03801F2E06F0E711CF8019A
:10318000A080B18026FF03C0652D70E002C06FEF04
:103190007FEFC5012C870E94751C2C0183012C85B3
:1031A0002F77222E17C03801F2E06F0E711CF80144
:1031B000A080B18026FF03C0652D70E002C06FEFD4
:1031C0007FEFC5012C870E946A1C2C012C8520688A
:1031D000222E830123FC1BC0832D90E04816590644
:1031E000B0F4B70180E290E00E94901C3A94F4CFD2
:1031F000F50127FC859127FE81915F01B70190E0E1
:103200000E94901C31103A94F1E04F1A5108411479
:10321000510471F7E5C0843611F0893639F5F801AB
:1032200027FF07C060817181828193810C5F1F4FEE
:1032300008C060817181072E000C880B990B0E5F0E
:103240001F4F2F76722E97FF09C09095809570952D
:1032500061957F4F8F4F9F4F2068722E2AE030E09C
:10326000A4010E94C81CA82EA81844C0853729F4C0
:103270002F7EB22E2AE030E025C0F22FF97FBF2E3C
:103280008F36C1F018F4883579F0B4C0803719F062
:10329000883721F0AFC02F2F2061B22EB4FE0DC0B1
:1032A0008B2D8460B82E09C024FF0AC09F2F966022
:1032B000B92E06C028E030E005C020E130E002C0B1
:1032C00020E132E0F801B7FE07C0608171818281A0
:1032D00093810C5F1F4F06C06081718180E090E098
:1032E0000E5F1F4FA4010E94C81CA82EA818FB2D1A
:1032F000FF777F2E76FE0BC0372D3E7FA51450F44E
:1033000074FE0AC072FC08C0372D3E7E05C0BA2C80
:10331000372D03C0BA2C01C0B52C34FF0DC0FE01FF
:10332000EA0DF11D8081803311F4397E09C032FF2E
:1033300006C0B394B39404C0832F867809F0B39485
:1033400033FD13C030FF06C05A2CB31418F4530CCD
:103350005B18B32CB31468F4B70180E290E03C87AB
:103360000E94901CB3943C85F5CFB31410F43B1825
:1033700001C0312C34FF12C0B70180E390E03C87DC
:103380000E94901C3C8532FF17C031FD03C088E7C6
:1033900090E002C088E590E0B7010CC0832F8678EA
:1033A00059F031FF02C08BE201C080E237FD8DE2AF
:1033B000B70190E00E94901CA51438F4B70180E397
:1033C00090E00E94901C5A94F7CFAA94F401EA0D61
:1033D000F11D8081B70190E00E94901CA110F5CFF3
:1033E000332009F451CEB70180E290E00E94901C96
:1033F0003A94F6CFF7018681978102C08FEF9FEF55
:103400002C96E2E10C947F1D4F925F926F927F9217
:103410009F92AF92BF92CF92DF92EF92FF920F9363
:103420001F93CF93DF93CDB7DEB729970FB6F894EC
:10343000DEBF0FBECDBF6A01122FB02E2BE32017C7
:1034400020F0FF24F394F00E02C0BCE3FB2E0F2DFE
:1034500027E0AE014F5F5F4F0E94921BAC01898154
:10346000982F9970913031F0E1FC06C0E0FE06C063
:1034700090E205C09DE203C09BE201C090E0EE2D0A
:10348000E07183FF3CC0911102C083E001C084E081
:10349000811718F4212F281B01C020E0E1110BC077
:1034A000F601822F30E2882319F031938150FBCF4F
:1034B000C20ED11C20E0992329F0D6019C93F6017D
:1034C00031966F01C6010396E2FE0AC03EE4D601C2
:1034D0003C9341E411964C93119712963C9306C08D
:1034E0003EE6F601308341E641833283FC01322F10
:1034F00040E2332309F442C041933150FACF82FFB6
:1035000044C0911102C083E001C084E0811718F427
:10351000212F281B01C020E0E1110BC0F601822FF2
:1035200030E2882319F031938150FBCFC20ED11CB9
:1035300020E0992329F0D6019C93F60131966F0182
:10354000C6010396E2FE0BC039E4D6013C933EE48B
:1035500011963C93119736E412963C9307C039E6D6
:10356000F60130833EE6318336E63283FC01322FAA
:1035700040E2332319F041933150FBCFFC01E20FBD
:10358000F11D10828EEF9FEFB7C0F1E0911101C0E5
:10359000F0E06F2F70E01416150624F49A012F5FE7
:1035A0003F4F02C021E030E0260F371FBB2029F03B
:1035B0006B2D70E06F5F7F4F02C060E070E0260F00
:1035C000371F612F70E0261737071CF4121B212FBD
:1035D00001C020E03E2D387159F4D601322F60E24F
:1035E000332319F06D933150FBCFC20ED11C20E074
:1035F000FF2331F0D6019C93B6016F5F7F4F6B01C3
:10360000E1110BC0F601922F30E3992319F03193A9
:103610009150FBCFC20ED11C20E09F2D940F3A8118
:10362000782F7071A72E84FF03C0313309F49150B5
:10363000191624F4993018F098E001C091E0E42FB5
:10364000852F57FF02C0E0E080E06E2F782FE0E08A
:10365000F0E0AEE29A2E3A01691A71082A01461A80
:10366000570A0B2D10E01195019511096F3F8FEF4F
:10367000780729F4D6019C92C60101966C01461781
:10368000570784F0661677066CF47F01E40CF51C8E
:10369000A1E0B0E0AC0FBD1FEA0EFB1ED7011196F2
:1036A000BC9002C090E3B92E615071093196C601F9
:1036B00001967C016017710724F0D601BC926C0161
:1036C000D5CF6417750741F4363320F4353321F430
:1036D000A11002C081E3B82EF601B082F701822F5B
:1036E00090E2882319F091938150FBCFF701E20F0C
:1036F000F11D108280E090E029960FB6F894DEBFAD
:103700000FBECDBFDF91CF911F910F91FF90EF9032
:10371000DF90CF90BF90AF909F907F906F905F9021
:103720004F900895283008F027E03327DA01990FE9
:10373000311D87FD916000966105710539F4326095
:103740002E5F3D9330E32A95E1F708959F3F30F0D7
:1037500080387105610509F03C5F3C5F3D93913015
:1037600008F08068911DDF93CF931F930F93FF9212
:10377000EF92192F987F9695E92F96959695E90FD8
:10378000FF27EE53FF4F99273327EE24FF24A7018D
:10379000E70105900894079428F4360FE71EF81EF9
:1037A000491F511D660F771F881F991F0694A1F7A7
:1037B0000590079428F4E70EF81E491F561FC11DF7
:1037C000770F881F991F661F0694A1F7059007942D
:1037D00028F4F80E491F561FC71FD11D880F991FC7
:1037E000661F771F0694A1F70590079420F4490FF0
:1037F000561FC71FD81F990F661F771F881F069473
:10380000A9F784911095177041F0D695C7955795F3
:103810004795F794E7941A95C1F7E8E6F0E06894C5
:103820001590159135916591959105907FE273956D
:10383000E118F10A430B560BC90BD009C0F7E10C94
:10384000F11E431F561FC91FD01D7EF4703311F4A3
:103850008A95E6CFE894015030F0080F0AF400276B
:10386000021708F4202F2395022F7A3328F079E3EA
:103870007D932A95E9F710C07D932A9589F60694E1
:1038800097956795379517951794E118F10A430BAB
:10389000560BC90BD00998F023957E9173957A3316
:1038A00008F070E37C932013B8F77E9170617D93EC
:1038B00030F0839571E37D9370E32A95E1F711244D
:1038C000EF90FF900F911F91CF91DF91992787FD86
:1038D00090950895FC010590615070400110D8F753
:1038E000809590958E0F9F1F0895FC016150704048
:1038F00001900110D8F7809590958E0F9F1F089525
:10390000DC01FC01672F71917723E1F7329704C046
:103910007C916D9370836291AE17BF07C8F30895D1
:103920000F931F93CF93DF93FB01238121FD03C0EE
:103930008FEF9FEF28C022FF16C046815781248158
:1039400035814217530744F4A081B1819D012F5F57
:103950003F4F318320838C93268137812F5F3F4FE8
:103960003783268310C0EB01092F182F0084F185BF
:10397000E02D0995892BE1F68E819F8101969F8329
:103980008E83812F902FDF91CF911F910F910895FA
:10399000FA01AA27283051F1203181F1E8946F9380
:1039A0006E7F6E5F7F4F8F4F9F4FAF4FB1E03ED026
:1039B000B4E03CD0670F781F891F9A1FA11D680FC4
:1039C000791F8A1F911DA11D6A0F711D811D911DF7
:1039D000A11D20D009F468943F912AE0269F11246C
:1039E0003019305D3193DEF6CF010895462F4770D0
:1039F000405D4193B3E00FD0C9F7F6CF462F4F702B
:103A0000405D4A3318F0495D31FD4052419302D088
:103A1000A9F7EACFB4E0A69597958795779567952E
:103A2000BA95C9F700976105710508959B01AC012E
:103A30000A2E06945795479537952795BA95C9F755
:103A4000620F731F841F951FA01D0895DC01CB0119
:103A5000FC01F999FECF06C0F2BDE1BDF89A31969E
:103A600000B40D9241505040B8F70895DC01A40F06
:103A7000B51F4150504048F0CB01840F951F2E9147
:103A80000E94471D41505040D0F70895262FF999C4
:103A9000FECF92BD81BDF89A019700B4021639F0AD
:103AA0001FBA20BD0FB6F894FA9AF99A0FBE08957E
:103AB0000E949A1DA59F900DB49F900DA49F800D0C
:103AC000911D112408952F923F924F925F926F9211
:103AD0007F928F929F92AF92BF92CF92DF92EF929E
:103AE000FF920F931F93CF93DF93CDB7DEB7CA1B1F
:103AF000DB0B0FB6F894DEBF0FBECDBF09942A884A
:103B0000398848885F846E847D848C849B84AA84F1
:103B1000B984C884DF80EE80FD800C811B81AA817E
:103B2000B981CE0FD11D0FB6F894DEBF0FBECDBF49
:103B3000ED010895A29FB001B39FC001A39F700D36
:103B4000811D1124911DB29F700D811D1124911DA5
:103B5000089597FB072E16F4009407D077FD09D03F
:103B60000E94DF1D07FC05D03EF4909581959F4F84
:103B70000895709561957F4F0895A1E21A2EAA1BB2
:103B8000BB1BFD010DC0AA1FBB1FEE1FFF1FA2170D
:103B9000B307E407F50720F0A21BB30BE40BF50B0A
:103BA000661F771F881F991F1A9469F76095709593
:103BB000809590959B01AC01BD01CF010895AA1B92
:103BC000BB1B51E107C0AA1FBB1FA617B70710F008
:103BD000A61BB70B881F991F5A95A9F7809590953A
:103BE000BC01CD010895EE0FFF1F0590F491E02D6B
:103BF000099481E090E0F8940C940D1EFB01DC0127
:103C00004150504048F001900D920020C9F701C08A
:103C10001D9241505040E0F7089512E0CFEAD2E003
:103C200004C0FE010E94F31D2196C03BD107C9F7D5
:043C3000F894FFCF36
:103C3400FFFFFF00FCE1A8A876074E07A8086E085E
:103C44004B08F007C407B2071B09D108FF0C0A414F
:103C540009C710C710000000005B11C810F310A2C0
:103C640011241102111611000000004D0AC810F1B0
:103C74000A4C0AA10AB90A340A20004F4B004D79B4
:103C840073656E736F72735F47726F76655F4D50C5
:103C940033004E41434B002100322E312E310000BF
:00000001FF
